:100000000C945D000C9485000C9485000C94850084
:100010000C9485000C9485000C9485000C9485004C
:100020000C9485000C9485000C9485000C9485003C
:100030000C9485000C9485000C9485000C9485002C
:100040000C940F030C9485000C9485000C9485008F
:100050000C9485000C9485000C9485000C9485000C
:100060000C9485000C94850000000008000201003B
:100070000003040700000000000000000000000072
:10008000250028002B0000000000240027002A0083
:10009000040404040404040402020202020203032E
:1000A0000303030301020408102040800102040836
:1000B0001020010204081020B90411241FBECFEF44
:1000C000D8E0DEBFCDBF11E0A0E0B1E0E6E8FEE0A1
:1000D00002C005900D92AC32B107D9F721E0ACE235
:1000E000B1E001C01D92A935B207E1F710E0CDE5FE
:1000F000D0E004C02197FE010E94FA04CC35D1075C
:10010000C9F70E9459030C9441070C94000090E039
:10011000FC01EC55FF4F2491FC01E057FF4F849107
:10012000882399F090E0880F991FFC01EA57FF4F50
:10013000A591B491FC01E458FF4F859194918FB73C
:10014000F894EC91E22BEC938FBF0895CF92DF925D
:10015000EF92FF920F931F93CF93DF936C017A017D
:100160008B01C0E0D0E0CE15DF0589F0D8016D919C
:100170008D01D601ED91FC910190F081E02DC60139
:100180000995892B11F47E0102C02196ECCFC7019D
:10019000DF91CF911F910F91FF90EF90DF90CF9063
:1001A000089590E0FC01E859FF4F3491FC01EC55B3
:1001B000FF4F2491FC01E057FF4FE491EE2309F437
:1001C0003BC0332339F1333091F038F43130A9F0AA
:1001D000323001F584B58F7D12C0373091F0383060
:1001E000A1F03430B9F4809180008F7D03C08091FC
:1001F00080008F77809380000DC084B58F7784BD99
:1002000009C08091B0008F7703C08091B0008F7DCE
:100210008093B000F0E0EE0FFF1FE458FF4FA59170
:10022000B4918FB7F894EC91611103C020952E23FF
:1002300001C02E2B2C938FBF08953FB7F894809167
:10024000310190913201A0913301B091340126B572
:10025000A89B05C02F3F19F00196A11DB11D3FBFFE
:10026000BA2FA92F982F8827820F911DA11DB11D8C
:10027000BC01CD0142E0660F771F881F991F4A9588
:10028000D1F708958F929F92AF92BF92CF92DF9253
:10029000EF92FF926B017C010E941D014B015C01FA
:1002A000C114D104E104F104F1F00E941D01DC014C
:1002B000CB0188199909AA09BB09883E9340A10579
:1002C000B10570F321E0C21AD108E108F10888EE07
:1002D000880E83E0981EA11CB11CC114D104E10456
:1002E000F10419F7DDCFFF90EF90DF90CF90BF9032
:1002F000AF909F908F900895CF93DF93EC0160E0D3
:100300008E810E94D10061E08E810E94D10060E068
:100310008E810E94D1008BE891E00197F1F7DF9187
:10032000CF910895CF92DF92EF92FF920F931F9398
:10033000CF93DF937C016C0187E0C80ED11CC0E035
:10034000D0E0062F10E0B8010C2E02C0759567951D
:100350000A94E2F76170F60181916F010E94D10069
:100360002196C430D10579F7C701DF91CF911F9154
:100370000F91FF90EF90DF90CF900C947C01CF9283
:10038000DF92EF92FF920F931F93CF93DF93EC01D5
:10039000F62E642F8C810E94D1008D818F3F19F041
:1003A00060E00E94D1008F850F2D10E084FF25C0F2
:1003B0006E0187E0C80ED11CE12CF12CB8010E2C87
:1003C00002C0759567950A94E2F76170F601819114
:1003D0006F010E94D100FFEFEF1AFF0A88E0E816D4
:1003E000F10461F7CE01DF91CF911F910F91FF9042
:1003F000EF90DF90CF900C947C01B80184E075956C
:1004000067958A95E1F7CE010E9492016F2DCE018A
:10041000DF91CF911F910F91FF90EF90DF90CF90E0
:100420000C94920141E00E94BF0181E090E00895A8
:1004300040E00C94BF01EF92FF920F931F93CF9374
:10044000DF93EC01623018F08F8588608F876B8BAB
:100450001C8A80E48D8B80E18E8B80E58F8B8C8174
:100460000E9487008D818F3F11F00E9487008E814E
:100470000E9487007E0187E0E80EF11C00E010E09A
:100480008F8584FD03C084E090E002C088E090E0A6
:100490000817190744F4F70181917F010E94870032
:1004A0000F5F1F4FEDCF8BE39DE00197F1F760E009
:1004B0008C810E94D10060E08E810E94D1008D81EC
:1004C0008F3F19F060E00E94D1006F8564FD1DC070
:1004D00063E0CE010E9492010BE416E4C80101978B
:1004E000F1F763E0CE010E949201C8010197F1F794
:1004F00063E0CE010E94920183E592E00197F1F75B
:1005000062E0CE010E94920116C06062CE010E949C
:1005100018028BE496E40197F1F76F856062CE01D3
:100520000E94180283E592E00197F1F76F856062FF
:10053000CE010E9418026F856062CE010E941802EF
:1005400084E0888B6CE0CE010E94180261E0CE014D
:100550000E9418028BE39FE10197F1F782E0898BFB
:1005600066E0CE01DF91CF911F910F91FF90EF9048
:100570000C941802009769F0FC0101900020E9F743
:100580003197AF01481B590BBC0181E491E00C94F9
:10059000A60080E090E008958F929F92AF92BF9264
:1005A0000F931F93CF93DF93CDB7DEB7A1970FB60D
:1005B000F894DEBF0FBECDBF19A2423008F44AE066
:1005C0008E010F5D1F4F842E912CA12CB12CA50103
:1005D00094010E94D804E62FB901CA010150110903
:1005E000EA3014F4E05D01C0E95CD801EC93232B00
:1005F000242B252B61F7C8010E94BA02A1960FB6E1
:10060000F894DEBF0FBECDBFDF91CF911F910F9148
:10061000BF90AF909F908F9008950E943C071F92CB
:100620000F920FB60F9211242F933F938F939F93A6
:10063000AF93BF9380912D0190912E01A0912F0136
:10064000B091300130912C0123E0230F2D3720F49D
:100650000196A11DB11D05C026E8230F0296A11D1C
:10066000B11D20932C0180932D0190932E01A09316
:100670002F01B09330018091310190913201A0910E
:100680003301B09134010196A11DB11D8093310158
:1006900090933201A0933301B0933401BF91AF9195
:1006A0009F918F913F912F910F900FBE0F901F90B0
:1006B0001895789484B5826084BD84B5816084BDCA
:1006C00085B5826085BD85B5816085BD80916E00F0
:1006D000816080936E001092810080918100826021
:1006E000809381008091810081608093810080915E
:1006F00080008160809380008091B100846080934D
:10070000B1008091B00081608093B00080917A0048
:10071000846080937A0080917A00826080937A006E
:1007200080917A00816080937A0080917A0080685D
:1007300080937A001092C10062E081E491E00E940F
:100740001B0288E091E00E94BA0260ED77E080E051
:1007500090E00E94420161E081E491E00E94180271
:100760008BE39FE10197F1F786E191E00E94BA02E5
:10077000C0E0D0E010E410937C0080917A008064A7
:1007800080937A0080917A0086FDFCCF609178009A
:100790008091790070E0782B072E000C880B990B64
:1007A0000E9415066B017C014B015C0160933D01C9
:1007B00070933E0180933F019093400120E030EC24
:1007C0004FE754E40E94720520E030E44CE955E420
:1007D0000E94CA066093390170933A0180933B01ED
:1007E00090933C01A7019601C701B6010E9437070B
:1007F000882319F080E291E01AC026013701E894BD
:1008000077F82FEF3FEF4FE75FE7C301B2010E9498
:10081000370781110FC02FEF3FEF4FE75FE7C301AD
:10082000B2010E946D0518162CF484E291E00E943A
:10083000BA027DC02FEF3FEF4FE75FE4C701B6017B
:100840000E94C50618161CF488E291E0F0CF2FEF45
:100850003FEF4FE75FECC701B6010E946D0587FDD2
:10086000F3CF20E030E0A901C701B6010E946D0579
:1008700087FF11C0E0914101F09142010190F081A8
:10088000E02D6DE281E491E0099546015701B7FA48
:10089000B094B7F8B0942AE037ED43EA5BE3C501C2
:1008A000B4010E9401054B015C010E94E4056B014B
:1008B0007C010E9413069B01AC01C501B4010E949A
:1008C00000054B015C014AE0C701B6010E94CC0261
:1008D00084E191E00E94BA0220E030E040E251E47D
:1008E000C501B4010E94CA064B015C010E94E405E7
:1008F0006B01E12CF12C4AE0C701B6010E94CC0249
:10090000C701B6010E9413069B01AC01C501B401E9
:100910000E94000520E030E040E251E40E94CA0657
:100920000E94E40580E090E04AE00E94CC0220E0D2
:1009300030E040E251E46091390170913A018091D8
:100940003B0190913C010E947205609335017093C8
:100950003601809337019093380168EE73E080E0B0
:1009600090E00E944201209709F405CF0E94000008
:1009700002CFE1E4F1E01382128284E091E09183FE
:1009800080838CE084838FEF85838BE0868385E092
:10099000878384E0808783E0818782E08287138673
:1009A000148615861686178661E0CF010C941B020B
:1009B000A1E21A2EAA1BBB1BFD010DC0AA1FBB1F63
:1009C000EE1FFF1FA217B307E407F50720F0A21BD5
:1009D000B30BE40BF50B661F771F881F991F1A9442
:1009E00069F760957095809590959B01AC01BD016C
:1009F000CF010895EE0FFF1F0590F491E02D0994AB
:100A00005058BB27AA270E9418050C948B060E94F9
:100A10007D0638F00E94840620F039F49F3F19F4D7
:100A200026F40C947A060EF4E095E7FB0C94740619
:100A3000E92F0E949C0658F3BA17620773078407D0
:100A4000950720F079F4A6F50C94BE060EF4E09517
:100A50000B2EBA2FA02D0B01B90190010C01CA0178
:100A6000A0011124FF27591B99F0593F50F4503E23
:100A700068F11A16F040A22F232F342F4427585F15
:100A8000F3CF469537952795A795F0405395C9F72D
:100A90007EF41F16BA0B620B730B840BBAF09150E5
:100AA000A1F0FF0FBB1F661F771F881FC2F70EC084
:100AB000BA0F621F731F841F48F487957795679557
:100AC000B795F7959E3F08F0B0CF9395880F08F043
:100AD0009927EE0F9795879508950E94500608F480
:100AE00081E008950E9486050C948B060E9484067E
:100AF00058F00E947D0640F029F45F3F29F00C94E5
:100B0000740651110C94BF060C947A060E949C0640
:100B100068F39923B1F3552391F3951B550BBB272C
:100B2000AA2762177307840738F09F5F5F4F220F71
:100B3000331F441FAA1FA9F335D00E2E3AF0E0E868
:100B400032D091505040E695001CCAF72BD0FE2FB2
:100B500029D0660F771F881FBB1F26173707480746
:100B6000AB07B0E809F0BB0B802DBF01FF279358FE
:100B70005F4F3AF09E3F510578F00C9474060C9448
:100B8000BF065F3FE4F3983ED4F38695779567956B
:100B9000B795F7959F5FC9F7880F911D9695879533
:100BA00097F90895E1E0660F771F881FBB1F621752
:100BB00073078407BA0720F0621B730B840BBA0B10
:100BC000EE1F88F7E09508950E94A40688F09F57CD
:100BD00098F0B92F9927B751B0F0E1F0660F771F61
:100BE000881F991F1AF0BA95C9F714C0B13091F057
:100BF0000E94BE06B1E008950C94BE06672F782FC0
:100C00008827B85F39F0B93FCCF38695779567951B
:100C1000B395D9F73EF490958095709561957F4F87
:100C20008F4F9F4F0895E89409C097FB3EF490952D
:100C30008095709561957F4F8F4F9F4F9923A9F0B5
:100C4000F92F96E9BB279395F69587957795679544
:100C5000B795F111F8CFFAF4BB0F11F460FF1BC088
:100C60006F5F7F4F8F4F9F4F16C0882311F096E91B
:100C700011C0772321F09EE8872F762F05C06623C9
:100C800071F096E8862F70E060E02AF09A95660F82
:100C9000771F881FDAF7880F9695879597F908953B
:100CA000990F0008550FAA0BE0E8FEEF161617067D
:100CB000E807F907C0F012161306E407F50798F0E5
:100CC000621B730B840B950B39F40A2661F0232BFE
:100CD000242B252B21F408950A2609F4A140A6957A
:100CE0008FEF811D811D089597F99F6780E870E05F
:100CF00060E008959FEF80EC089500240A94161692
:100D0000170618060906089500240A9412161306F9
:100D1000140605060895092E0394000C11F4882387
:100D200052F0BB0F40F4BF2B11F460FF04C06F5FA3
:100D30007F4F8F4F9F4F089557FD9058440F551F79
:100D400059F05F3F71F04795880F97FB991F61F04D
:100D50009F3F79F087950895121613061406551FC4
:100D6000F2CF4695F1DF08C0161617061806991F30
:100D7000F1CF86957105610508940895E894BB2725
:100D800066277727CB0197F908950E94500608F44B
:100D90008FEF08950E94DD060C948B060E947D065D
:100DA00038F00E94840620F0952311F00C9474060C
:100DB0000C947A0611240C94BF060E949C0670F3D2
:100DC000959FC1F3950F50E0551F629FF001729FF0
:100DD000BB27F00DB11D639FAA27F00DB11DAA1FFF
:100DE000649F6627B00DA11D661F829F2227B00D4C
:100DF000A11D621F739FB00DA11D621F839FA00DD7
:100E0000611D221F749F3327A00D611D231F849F26
:100E1000600D211D822F762F6A2F11249F5750407D
:100E20009AF0F1F088234AF0EE0FFF1FBB1F661FF8
:100E3000771F881F91505040A9F79E3F510580F0C1
:100E40000C9474060C94BF065F3FE4F3983ED4F311
:100E5000869577956795B795F795E7959F5FC1F765
:100E6000FE2B880F911D9695879597F908950E94FE
:100E70005006880B990B089581E090E0F8940C944B
:060E80004107F894FFCFCA
:100E8600000000001202A600486F732067656C64BC
:100E9600696E697A2E00536963616B6C696B3A00FF
:0C0EA6006E616E00696E66006F7666007B
:107E0000112484B714BE81FFF0D085E080938100F7
:107E100082E08093C00088E18093C10086E0809377
:107E2000C20080E18093C4008EE0C9D0259A86E02C
:107E300020E33CEF91E0309385002093840096BBD3
:107E4000B09BFECF1D9AA8958150A9F7CC24DD24C4
:107E500088248394B5E0AB2EA1E19A2EF3E0BF2EE7
:107E6000A2D0813461F49FD0082FAFD0023811F036
:107E7000013811F484E001C083E08DD089C08234E0
:107E800011F484E103C0853419F485E0A6D080C0E4
:107E9000853579F488D0E82EFF2485D0082F10E0AE
:107EA000102F00270E291F29000F111F8ED06801E7
:107EB0006FC0863521F484E090D080E0DECF843638
:107EC00009F040C070D06FD0082F6DD080E0C81688
:107ED00080E7D80618F4F601B7BEE895C0E0D1E017
:107EE00062D089930C17E1F7F0E0CF16F0E7DF06D8
:107EF00018F0F601B7BEE89568D007B600FCFDCFD4
:107F0000A601A0E0B1E02C9130E011968C91119780
:107F100090E0982F8827822B932B1296FA010C0160
:107F200087BEE89511244E5F5F4FF1E0A038BF0790
:107F300051F7F601A7BEE89507B600FCFDCF97BE46
:107F4000E89526C08437B1F42ED02DD0F82E2BD052
:107F50003CD0F601EF2C8F010F5F1F4F84911BD097
:107F6000EA94F801C1F70894C11CD11CFA94CF0C13
:107F7000D11C0EC0853739F428D08EE10CD085E9AC
:107F80000AD08FE07ACF813511F488E018D01DD067
:107F900080E101D065CF982F8091C00085FFFCCF94
:107FA0009093C60008958091C00087FFFCCF809118
:107FB000C00084FD01C0A8958091C6000895E0E648
:107FC000F0E098E1908380830895EDDF803219F02E
:107FD00088E0F5DFFFCF84E1DECF1F93182FE3DFCA
:107FE0001150E9F7F2DF1F91089580E0E8DFEE27F6
:047FF000FF270994CA
:027FFE00040479
:0400000300007E007B
:00000001FF
