:100000000C945D000C9485000C9485000C94850084
:100010000C9485000C9485000C9485000C9485004C
:100020000C9485000C9485000C9485000C9485003C
:100030000C9485000C9485000C9485000C9485002C
:100040000C94CE020C9485000C9485000C948500D1
:100050000C9485000C9485000C9485000C9485000C
:100060000C9485000C94850000000008000201003B
:100070000003040700000000000000000000000072
:10008000250028002B0000000000240027002A0083
:10009000040404040404040402020202020203032E
:1000A0000303030301020408102040800102040836
:1000B00010200102040810201B0411241FBECFEFE2
:1000C000D8E0DEBFCDBF11E0A0E0B1E0E2E2F9E0B0
:1000D00002C005900D92AC32B107D9F721E0ACE235
:1000E000B1E001C01D92A335B207E1F710E0CDE504
:1000F000D0E004C02197FE010E948404CC35D107D2
:10010000C9F70E9418030C948F040C94000090E02F
:10011000FC01EC55FF4F2491FC01E057FF4F849107
:10012000882399F090E0880F991FFC01EA57FF4F50
:10013000A591B491FC01E458FF4F859194918FB73C
:10014000F894EC91E22BEC938FBF0895CF92DF925D
:10015000EF92FF920F931F93CF93DF936C017A017D
:100160008B01C0E0D0E0CE15DF0589F0D8016D919C
:100170008D01D601ED91FC910190F081E02DC60139
:100180000995892B11F47E0102C02196ECCFC7019D
:10019000DF91CF911F910F91FF90EF90DF90CF9063
:1001A000089590E0FC01E859FF4F3491FC01EC55B3
:1001B000FF4F2491FC01E057FF4FE491EE2309F437
:1001C0003BC0332339F1333091F038F43130A9F0AA
:1001D000323001F584B58F7D12C0373091F0383060
:1001E000A1F03430B9F4809180008F7D03C08091FC
:1001F00080008F77809380000DC084B58F7784BD99
:1002000009C08091B0008F7703C08091B0008F7DCE
:100210008093B000F0E0EE0FFF1FE458FF4FA59170
:10022000B4918FB7F894EC91611103C020952E23FF
:1002300001C02E2B2C938FBF08953FB7F894809167
:10024000310190913201A0913301B091340126B572
:10025000A89B05C02F3F19F00196A11DB11D3FBFFE
:10026000BA2FA92F982F8827820F911DA11DB11D8C
:10027000BC01CD0142E0660F771F881F991F4A9588
:10028000D1F708958F929F92AF92BF92CF92DF9253
:10029000EF92FF926B017C010E941D014B015C01FA
:1002A000C114D104E104F104F1F00E941D01DC014C
:1002B000CB0188199909AA09BB09883E9340A10579
:1002C000B10570F321E0C21AD108E108F10888EE07
:1002D000880E83E0981EA11CB11CC114D104E10456
:1002E000F10419F7DDCFFF90EF90DF90CF90BF9032
:1002F000AF909F908F900895CF93DF93EC0160E0D3
:100300008E810E94D10061E08E810E94D10060E068
:100310008E810E94D1008BE891E00197F1F7DF9187
:10032000CF910895CF92DF92EF92FF920F931F9398
:10033000CF93DF937C016C0187E0C80ED11CC0E035
:10034000D0E0062F10E0B8010C2E02C0759567951D
:100350000A94E2F76170F60181916F010E94D10069
:100360002196C430D10579F7C701DF91CF911F9154
:100370000F91FF90EF90DF90CF900C947C01CF9283
:10038000DF92EF92FF920F931F93CF93DF93EC01D5
:10039000F62E642F8C810E94D1008D818F3F19F041
:1003A00060E00E94D1008F850F2D10E084FF25C0F2
:1003B0006E0187E0C80ED11CE12CF12CB8010E2C87
:1003C00002C0759567950A94E2F76170F601819114
:1003D0006F010E94D100FFEFEF1AFF0A88E0E816D4
:1003E000F10461F7CE01DF91CF911F910F91FF9042
:1003F000EF90DF90CF900C947C01B80184E075956C
:1004000067958A95E1F7CE010E9492016F2DCE018A
:10041000DF91CF911F910F91FF90EF90DF90CF90E0
:100420000C94920141E00E94BF0181E090E00895A8
:1004300040E00C94BF01EF92FF920F931F93CF9374
:10044000DF93EC01623018F08F8588608F876B8BAB
:100450001C8A80E48D8B80E18E8B80E58F8B8C8174
:100460000E9487008D818F3F11F00E9487008E814E
:100470000E9487007E0187E0E80EF11C00E010E09A
:100480008F8584FD03C084E090E002C088E090E0A6
:100490000817190744F4F70181917F010E94870032
:1004A0000F5F1F4FEDCF8BE39DE00197F1F760E009
:1004B0008C810E94D10060E08E810E94D1008D81EC
:1004C0008F3F19F060E00E94D1006F8564FD1DC070
:1004D00063E0CE010E9492010BE416E4C80101978B
:1004E000F1F763E0CE010E949201C8010197F1F794
:1004F00063E0CE010E94920183E592E00197F1F75B
:1005000062E0CE010E94920116C06062CE010E949C
:1005100018028BE496E40197F1F76F856062CE01D3
:100520000E94180283E592E00197F1F76F856062FF
:10053000CE010E9418026F856062CE010E941802EF
:1005400084E0888B6CE0CE010E94180261E0CE014D
:100550000E9418028BE39FE10197F1F782E0898BFB
:1005600066E0CE01DF91CF911F910F91FF90EF9048
:100570000C941802009769F0FC0101900020E9F743
:100580003197AF01481B590BBC018BE391E00C94F0
:10059000A60080E090E008950E948A041F920F92C6
:1005A0000FB60F9211242F933F938F939F93AF9386
:1005B000BF9380912D0190912E01A0912F01B091B8
:1005C000300130912C0123E0230F2D3720F40196C8
:1005D000A11DB11D05C026E8230F0296A11DB11D66
:1005E00020932C0180932D0190932E01A0932F0135
:1005F000B09330018091310190913201A09133018B
:10060000B09134010196A11DB11D809331019093E9
:100610003201A0933301B0933401BF91AF919F9108
:100620008F913F912F910F900FBE0F901F901895B3
:10063000CF93DF93CDB7DEB7A1970FB6F894DEBFA7
:100640000FBECDBF789484B5826084BD84B58160CF
:1006500084BD85B5826085BD85B5816085BD80918D
:100660006E00816080936E00109281008091810005
:1006700082608093810080918100816080938100FD
:10068000809180008160809380008091B1008460BF
:100690008093B1008091B00081608093B000809120
:1006A0007A00846080937A0080917A0082608093DF
:1006B0007A0080917A00816080937A0080917A003C
:1006C000806880937A001092C10062E08BE391E031
:1006D0000E941B0288E091E00E94BA0260ED77E080
:1006E00080E090E00E94420187E191E00E94BA021E
:1006F00088248A9493E0992E2AE0422E512C612C72
:10070000712C30E0A32E30E0B32E80E4382E3092EE
:100710007C0080917A00806480937A0080917A00D6
:1007200086FDFCCF809178002091790090E0922B9B
:1007300090933A0180933901B4010E943A0428E869
:1007400033E1629FC001639F900D729F900D112451
:1007500090933801809337016AE070E00E943A0478
:100760008B017093360160933501E0914E01E230C8
:1007700010F4E15001C0E1E0F0E0E55CFE4F648977
:1007800060688BE391E00E9418026801012E000C62
:10079000EE08FF0817FF26C0E0913B01F0913C01F5
:1007A0000190F081E02D6DE28BE391E00995222725
:1007B0003327A9012C193D094E095F0919A28E01A1
:1007C0000F5D1F4FCA01B901A30192010E944E049F
:1007D000605DF80162938F012115310541055105D6
:1007E00089F715C0A701960119A28E010F5D1F4F51
:1007F000CA01B901A30192010E944E04605DF80193
:1008000062938F01211531054105510589F7C80112
:100810000E94BA0283E291E00E94BA0268EE73E09D
:1008200080E090E00E944201A114B10409F46FCF6E
:100830000E9400006ACFEBE3F1E01382128284E0B1
:1008400091E0918380838CE084838FEF85838BE0BC
:10085000868385E0878384E0808783E0818782E0E8
:1008600082871386148615861686178661E0CF0167
:100870000C941B0297FB072E16F4009407D077FD0B
:1008800009D00E94700407FC05D03EF49095819534
:100890009F4F0895709561957F4F0895A1E21A2E9C
:1008A000AA1BBB1BFD010DC0AA1FBB1FEE1FFF1F14
:1008B000A217B307E407F50720F0A21BB30BE40B64
:1008C000F50B661F771F881F991F1A9469F76095AB
:1008D0007095809590959B01AC01BD01CF01089565
:1008E000AA1BBB1B51E107C0AA1FBB1FA617B70756
:1008F00010F0A61BB70B881F991F5A95A9F7809572
:100900009095BC01CD010895EE0FFF1F0590F49165
:10091000E02D099481E090E0F8940C948F04F89411
:02092000FFCF07
:10092200000000001202A600486FC59F2067656C98
:1009320064696E697A2E0053C4B163616B6CC4B191
:0C0942006B3A002044657265636500009C
:00000001FF
