:100000000C945D000C9485000C9485000C94850084
:100010000C9485000C9485000C9485000C9485004C
:100020000C9485000C9485000C9485000C9485003C
:100030000C9485000C9485000C9485000C9485002C
:100040000C940F030C9485000C9485000C9485008F
:100050000C9485000C9485000C9485000C9485000C
:100060000C9485000C94850000000008000201003B
:100070000003040700000000000000000000000072
:10008000250028002B0000000000240027002A0083
:10009000040404040404040402020202020203032E
:1000A0000303030301020408102040800102040836
:1000B0001020010204081020D40411241FBECFEF29
:1000C000D8E0DEBFCDBF21E0A6E4B1E001C01D92C3
:1000D000A137B207E1F711E0A0E0B1E0E2E4FEE011
:1000E00002C005900D92A634B107D9F710E0CDE516
:1000F000D0E004C02197FE010E94FA04CC35D1075C
:10010000C9F70E9459030C941F070C94000090E05B
:10011000FC01EC55FF4F2491FC01E057FF4F849107
:10012000882399F090E0880F991FFC01EA57FF4F50
:10013000A591B491FC01E458FF4F859194918FB73C
:10014000F894EC91E22BEC938FBF0895CF92DF925D
:10015000EF92FF920F931F93CF93DF936C017A017D
:100160008B01C0E0D0E0CE15DF0589F0D8016D919C
:100170008D01D601ED91FC910190F081E02DC60139
:100180000995892B11F47E0102C02196ECCFC7019D
:10019000DF91CF911F910F91FF90EF90DF90CF9063
:1001A000089590E0FC01E859FF4F3491FC01EC55B3
:1001B000FF4F2491FC01E057FF4FE491EE2309F437
:1001C0003BC0332339F1333091F038F43130A9F0AA
:1001D000323001F584B58F7D12C0373091F0383060
:1001E000A1F03430B9F4809180008F7D03C08091FC
:1001F00080008F77809380000DC084B58F7784BD99
:1002000009C08091B0008F7703C08091B0008F7DCE
:100210008093B000F0E0EE0FFF1FE458FF4FA59170
:10022000B4918FB7F894EC91611103C020952E23FF
:1002300001C02E2B2C938FBF08953FB7F894809167
:100240004B0190914C01A0914D01B0914E0126B50A
:10025000A89B05C02F3F19F00196A11DB11D3FBFFE
:10026000BA2FA92F982F8827820F911DA11DB11D8C
:10027000BC01CD0142E0660F771F881F991F4A9588
:10028000D1F708958F929F92AF92BF92CF92DF9253
:10029000EF92FF926B017C010E941D014B015C01FA
:1002A000C114D104E104F104F1F00E941D01DC014C
:1002B000CB0188199909AA09BB09883E9340A10579
:1002C000B10570F321E0C21AD108E108F10888EE07
:1002D000880E83E0981EA11CB11CC114D104E10456
:1002E000F10419F7DDCFFF90EF90DF90CF90BF9032
:1002F000AF909F908F900895CF93DF93EC0160E0D3
:100300008E810E94D10061E08E810E94D10060E068
:100310008E810E94D1008BE891E00197F1F7DF9187
:10032000CF910895CF92DF92EF92FF920F931F9398
:10033000CF93DF937C016C0187E0C80ED11CC0E035
:10034000D0E0062F10E0B8010C2E02C0759567951D
:100350000A94E2F76170F60181916F010E94D10069
:100360002196C430D10579F7C701DF91CF911F9154
:100370000F91FF90EF90DF90CF900C947C01CF9283
:10038000DF92EF92FF920F931F93CF93DF93EC01D5
:10039000F62E642F8C810E94D1008D818F3F19F041
:1003A00060E00E94D1008F850F2D10E084FF25C0F2
:1003B0006E0187E0C80ED11CE12CF12CB8010E2C87
:1003C00002C0759567950A94E2F76170F601819114
:1003D0006F010E94D100FFEFEF1AFF0A88E0E816D4
:1003E000F10461F7CE01DF91CF911F910F91FF9042
:1003F000EF90DF90CF900C947C01B80184E075956C
:1004000067958A95E1F7CE010E9492016F2DCE018A
:10041000DF91CF911F910F91FF90EF90DF90CF90E0
:100420000C94920141E00E94BF0181E090E00895A8
:1004300040E00C94BF01EF92FF920F931F93CF9374
:10044000DF93EC01623018F08F8588608F876B8BAB
:100450001C8A80E48D8B80E18E8B80E58F8B8C8174
:100460000E9487008D818F3F11F00E9487008E814E
:100470000E9487007E0187E0E80EF11C00E010E09A
:100480008F8584FD03C084E090E002C088E090E0A6
:100490000817190744F4F70181917F010E94870032
:1004A0000F5F1F4FEDCF8BE39DE00197F1F760E009
:1004B0008C810E94D10060E08E810E94D1008D81EC
:1004C0008F3F19F060E00E94D1006F8564FD1DC070
:1004D00063E0CE010E9492010BE416E4C80101978B
:1004E000F1F763E0CE010E949201C8010197F1F794
:1004F00063E0CE010E94920183E592E00197F1F75B
:1005000062E0CE010E94920116C06062CE010E949C
:1005100018028BE496E40197F1F76F856062CE01D3
:100520000E94180283E592E00197F1F76F856062FF
:10053000CE010E9418026F856062CE010E941802EF
:1005400084E0888B6CE0CE010E94180261E0CE014D
:100550000E9418028BE39FE10197F1F782E0898BFB
:1005600066E0CE01DF91CF911F910F91FF90EF9048
:100570000C941802009769F0FC0101900020E9F743
:100580003197AF01481B590BBC0189E591E00C94F0
:10059000A60080E090E008958F929F92AF92BF9264
:1005A0000F931F93CF93DF93CDB7DEB7A1970FB60D
:1005B000F894DEBF0FBECDBF19A2423008F44AE066
:1005C0008E010F5D1F4F842E912CA12CB12CA50103
:1005D00094010E94EE06E62FB901CA0101501109EB
:1005E000EA3014F4E05D01C0E95CD801EC93232B00
:1005F000242B252B61F7C8010E94BA02A1960FB6E1
:10060000F894DEBF0FBECDBFDF91CF911F910F9148
:10061000BF90AF909F908F9008950E94CA061F923E
:100620000F920FB60F9211242F933F938F939F93A6
:10063000AF93BF938091470190914801A0914901E8
:10064000B0914A013091460123E0230F2D3720F469
:100650000196A11DB11D05C026E8230F0296A11D1C
:10066000B11D209346018093470190934801A093C8
:100670004901B0934A0180914B0190914C01A091A6
:100680004D01B0914E010196A11DB11D80934B010A
:1006900090934C01A0934D01B0934E01BF91AF9147
:1006A0009F918F913F912F910F900FBE0F901F90B0
:1006B0001895789484B5826084BD84B5816084BDCA
:1006C00085B5826085BD85B5816085BD80916E00F0
:1006D000816080936E001092810080918100826021
:1006E000809381008091810081608093810080915E
:1006F00080008160809380008091B100846080934D
:10070000B1008091B00081608093B00080917A0048
:10071000846080937A0080917A00826080937A006E
:1007200080917A00816080937A0080917A0080685D
:1007300080937A001092C10062E089E591E00E9406
:100740001B028CE091E00E94BA0260ED77E080E04D
:1007500090E00E94420161E089E591E00E94180268
:100760008BE39FE10197F1F78AE191E00E94BA02E1
:10077000C0E0D0E010E410937C0080917A008064A7
:1007800080937A0080917A0086FDFCCFE09078001B
:1007900080917900F12CF82AF0925801E0925701EB
:1007A000B701660F771F660F771F072E000C880BA7
:1007B000990B0E94A3056093530170935401809399
:1007C000550190935601E0916C01E23010F4E15034
:1007D00001C0E1E0F0E0E75AFE4F6489606889E516
:1007E00091E00E94180222E330E0D7010E94F30456
:1007F0002FEF33E040E050E00E94CF06CA01B9017C
:100800000E94A3056B017C014B015C0160934F01C9
:100810007093500180935101909352019B01AC0160
:100820000E94C506882319F084E291E01AC02601CF
:100830003701E89477F82FEF3FEF4FE75FE7C30109
:10084000B2010E94C50681110FC02FEF3FEF4FE7A5
:100850005FE7C301B2010E946D0518162CF488E20F
:1008600091E00E94BA027DC02FEF3FEF4FE75FE4B7
:10087000C701B6010E94530618161CF48CE291E0E1
:10088000F0CF2FEF3FEF4FE75FECC701B6010E94BB
:100890006D0587FDF3CF20E030E0A901C701B60167
:1008A0000E946D0587FF11C0E0915901F0915A0136
:1008B0000190F081E02D6DE289E591E00995460116
:1008C0005701B7FAB094B7F8B0942AE037ED43EA8D
:1008D0005BE3C501B4010E9401054B015C010E946C
:1008E00072056B017C010E94A1059B01AC01C50151
:1008F000B4010E9400054B015C014AE0C701B6014A
:100900000E94CC0288E191E00E94BA0220E030E02F
:1009100040E251E4C501B4010E9458064B015C015C
:100920000E9472056B01E12CF12C4AE0C701B6016F
:100930000E94CC02C701B6010E94A1059B01AC0137
:10094000C501B4010E94000520E030E040E251E41E
:100950000E9458060E94720580E090E04AE00E94E2
:10096000CC0220E030E048E152E460914F01709108
:10097000500180915101909152010E945306181626
:100980001CF480E391E002C08BE391E00E94BA0284
:1009900068EE73E080E090E00E944201209709F445
:1009A000EACE0E940000E7CEE9E5F1E01382128270
:1009B00088E091E0918380838CE084838FEF85834E
:1009C0008BE0868385E0878384E0808783E081876E
:1009D00082E082871386148615861686178661E064
:1009E000CF010C941B020E941007B7FF0895821BD1
:1009F000930B0895EE0FFF1F0590F491E02D0994DD
:100A00005058BB27AA270E9418050C9419060E946B
:100A10000B0638F00E94120620F039F49F3F19F4BB
:100A200026F40C9408060EF4E095E7FB0C940206FD
:100A3000E92F0E942A0658F3BA1762077307840742
:100A4000950720F079F4A6F50C944C060EF4E09589
:100A50000B2EBA2FA02D0B01B90190010C01CA0178
:100A6000A0011124FF27591B99F0593F50F4503E23
:100A700068F11A16F040A22F232F342F4427585F15
:100A8000F3CF469537952795A795F0405395C9F72D
:100A90007EF41F16BA0B620B730B840BBAF09150E5
:100AA000A1F0FF0FBB1F661F771F881FC2F70EC084
:100AB000BA0F621F731F841F48F487957795679557
:100AC000B795F7959E3F08F0B0CF9395880F08F043
:100AD0009927EE0F9795879508950E94DE0508F4F3
:100AE00081E008950E94320688F09F5798F0B92F50
:100AF0009927B751B0F0E1F0660F771F881F991F53
:100B00001AF0BA95C9F714C0B13091F00E944C06A2
:100B1000B1E008950C944C06672F782F8827B85FB2
:100B200039F0B93FCCF3869577956795B395D9F7AA
:100B30003EF490958095709561957F4F8F4F9F4FB4
:100B40000895E89409C097FB3EF4909580957095C0
:100B500061957F4F8F4F9F4F9923A9F0F92F96E909
:100B6000BB279395F695879577956795B795F1117E
:100B7000F8CFFAF4BB0F11F460FF1BC06F5F7F4F1B
:100B80008F4F9F4F16C0882311F096E911C077232D
:100B900021F09EE8872F762F05C0662371F096E836
:100BA000862F70E060E02AF09A95660F771F881F05
:100BB000DAF7880F9695879597F90895990F0008A9
:100BC000550FAA0BE0E8FEEF16161706E807F9071F
:100BD000C0F012161306E407F50798F0621B730BBA
:100BE000840B950B39F40A2661F0232B242B252B3B
:100BF00021F408950A2609F4A140A6958FEF811DDE
:100C0000811D089597F99F6780E870E060E008957E
:100C10009FEF80EC089500240A9416161706180614
:100C20000906089500240A941216130614060506F0
:100C30000895092E0394000C11F4882352F0BB0F81
:100C400040F4BF2B11F460FF04C06F5F7F4F8F4FE4
:100C50009F4F089557FD9058440F551F59F05F3F1F
:100C600071F04795880F97FB991F61F09F3F79F0CE
:100C700087950895121613061406551FF2CF469550
:100C8000F1DF08C0161617061806991FF1CF8695D2
:100C90007105610508940895E894BB2766277727B6
:100CA000CB0197F908950E94DE0508F48FEF0895AF
:100CB0000E946B060C9419060E940B0638F00E94E5
:100CC000120620F0952311F00C9402060C940806ED
:100CD00011240C944D060E942A0670F3959FC1F3CF
:100CE000950F50E0551F629FF001729FBB27F00DDA
:100CF000B11D639FAA27F00DB11DAA1F649F66272F
:100D0000B00DA11D661F829F2227B00DA11D621F7D
:100D1000739FB00DA11D621F839FA00D611D221F37
:100D2000749F3327A00D611D231F849F600D211D1B
:100D3000822F762F6A2F11249F5750409AF0F1F09E
:100D400088234AF0EE0FFF1FBB1F661F771F881F07
:100D500091505040A9F79E3F510580F00C94020637
:100D60000C944D065F3FE4F3983ED4F38695779557
:100D70006795B795F795E7959F5FC1F7FE2B880FAD
:100D8000911D9695879597F908950E94DE05880B29
:100D9000990B089581E090E0F8940C941F07052EBC
:100DA00097FB1EF400940E94E60657FD07D00E94B0
:100DB000EE0607FC03D04EF40C94E60650954095E1
:100DC000309521953F4F4F4F5F4F089590958095F7
:100DD000709561957F4F8F4F9F4F0895A1E21A2E16
:100DE000AA1BBB1BFD010DC0AA1FBB1FEE1FFF1FCF
:100DF000A217B307E407F50720F0A21BB30BE40B1F
:100E0000F50B661F771F881F991F1A9469F7609565
:100E10007095809590959B01AC01BD01CF0108951F
:100E2000A29FB001B39FC001A39F700D811D11242B
:100E3000911DB29F700D811D1124911D0895F8948C
:020E4000FFCFE2
:100E420001000000000000001202A600486F73209B
:100E520067656C64696E697A2E00536963616B6CB5
:100E6200696B3A006E616E00696E66006F766600AD
:100E7200202A432C20536F67757400202A432C20AC
:060E8200497369742000B1
:00000001FF
